{"contracts/Gaming.sol":{"Gaming":{"abi":[{"inputs":[],"stateMutability":"payable","type":"constructor"},{"anonymous":false,"inputs":[{"indexed":false,"internalType":"address","name":"funder","type":"address"},{"indexed":false,"internalType":"uint256","name":"amount","type":"uint256"}],"name":"GameFunded","type":"event"},{"anonymous":false,"inputs":[{"indexed":false,"internalType":"address","name":"player","type":"address"},{"indexed":false,"internalType":"uint256","name":"amount","type":"uint256"},{"indexed":false,"internalType":"uint256","name":"mysteryNumber","type":"uint256"},{"indexed":false,"internalType":"uint256","name":"displayedNumber","type":"uint256"}],"name":"PlayerLost","type":"event"},{"anonymous":false,"inputs":[{"indexed":false,"internalType":"address","name":"player","type":"address"},{"indexed":false,"internalType":"uint256","name":"amount","type":"uint256"},{"indexed":false,"internalType":"uint256","name":"mysteryNumber","type":"uint256"},{"indexed":false,"internalType":"uint256","name":"displayedNumber","type":"uint256"}],"name":"PlayerWon","type":"event"},{"anonymous":false,"inputs":[{"indexed":false,"internalType":"uint256","name":"wager","type":"uint256"},{"indexed":false,"internalType":"uint256","name":"playerNumber","type":"uint256"},{"indexed":false,"internalType":"uint256","name":"mysteryNumber","type":"uint256"},{"indexed":false,"internalType":"bool","name":"guess","type":"bool"},{"indexed":false,"internalType":"string","name":"result","type":"string"}],"name":"RoundComplete","type":"event"},{"inputs":[{"internalType":"uint256","name":"mysteryNumber","type":"uint256"},{"internalType":"uint256","name":"myNumber","type":"uint256"},{"internalType":"bool","name":"guess","type":"bool"}],"name":"determineWinner","outputs":[{"internalType":"bool","name":"","type":"bool"}],"stateMutability":"pure","type":"function"},{"inputs":[],"name":"fundGame","outputs":[],"stateMutability":"payable","type":"function"},{"inputs":[],"name":"getLosses","outputs":[{"internalType":"uint256","name":"","type":"uint256"}],"stateMutability":"payable","type":"function"},{"inputs":[],"name":"getWins","outputs":[{"internalType":"uint256","name":"","type":"uint256"}],"stateMutability":"payable","type":"function"},{"inputs":[],"name":"losses","outputs":[{"internalType":"uint256","name":"","type":"uint256"}],"stateMutability":"view","type":"function"},{"inputs":[],"name":"owner","outputs":[{"internalType":"address payable","name":"","type":"address"}],"stateMutability":"view","type":"function"},{"inputs":[{"internalType":"address","name":"","type":"address"}],"name":"players","outputs":[{"internalType":"uint256","name":"wins","type":"uint256"},{"internalType":"uint256","name":"losses","type":"uint256"}],"stateMutability":"view","type":"function"},{"inputs":[{"internalType":"uint256","name":"display","type":"uint256"},{"internalType":"bool","name":"guess","type":"bool"}],"name":"winOrLose","outputs":[{"internalType":"bool","name":"","type":"bool"},{"internalType":"uint256","name":"","type":"uint256"}],"stateMutability":"payable","type":"function"},{"inputs":[],"name":"wins","outputs":[{"internalType":"uint256","name":"","type":"uint256"}],"stateMutability":"view","type":"function"},{"inputs":[],"name":"withdrawFunds","outputs":[],"stateMutability":"nonpayable","type":"function"}],"evm":{"bytecode":{"linkReferences":{},"object":"6080604052336000806101000a81548173ffffffffffffffffffffffffffffffffffffffff021916908373ffffffffffffffffffffffffffffffffffffffff1602179055506001600060146101000a81548160ff02191690831515021790555060006001819055506000600281905550610d758061007e6000396000f3fe6080604052600436106100915760003560e01c80638da5cb5b116100595780638da5cb5b1461015e578063c3aabf2d14610189578063e169bf6c146101a7578063e2eb41ff146101b1578063fc541ef3146101ef57610091565b8063171273a51461009657806324600fc3146100d357806324de908d146100ea57806335e1983e146101155780636f22d6a514610133575b600080fd5b3480156100a257600080fd5b506100bd60048036038101906100b8919061079f565b610220565b6040516100ca9190610801565b60405180910390f35b3480156100df57600080fd5b506100e861028d565b005b3480156100f657600080fd5b506100ff610364565b60405161010c919061082b565b60405180910390f35b61011d61036a565b60405161012a919061082b565b60405180910390f35b34801561013f57600080fd5b50610148610374565b604051610155919061082b565b60405180910390f35b34801561016a57600080fd5b5061017361037a565b6040516101809190610887565b60405180910390f35b61019161039e565b60405161019e919061082b565b60405180910390f35b6101af6103a8565b005b3480156101bd57600080fd5b506101d860048036038101906101d391906108e0565b610471565b6040516101e692919061090d565b60405180910390f35b61020960048036038101906102049190610936565b610495565b604051610217929190610976565b60405180910390f35b60006001151582151503610255578383111561023f5760019050610286565b838310156102505760009050610286565b610285565b600015158215150361028457828411156102725760019050610286565b828410156102835760009050610286565b5b5b5b9392505050565b60008054906101000a900473ffffffffffffffffffffffffffffffffffffffff1673ffffffffffffffffffffffffffffffffffffffff163373ffffffffffffffffffffffffffffffffffffffff161461031b576040517f08c379a000000000000000000000000000000000000000000000000000000000815260040161031290610a22565b60405180910390fd5b3373ffffffffffffffffffffffffffffffffffffffff166108fc479081150290604051600060405180830381858888f19350505050158015610361573d6000803e3d6000fd5b50565b60015481565b6000600254905090565b60025481565b60008054906101000a900473ffffffffffffffffffffffffffffffffffffffff1681565b6000600154905090565b60008054906101000a900473ffffffffffffffffffffffffffffffffffffffff1673ffffffffffffffffffffffffffffffffffffffff163373ffffffffffffffffffffffffffffffffffffffff1614610436576040517f08c379a000000000000000000000000000000000000000000000000000000000815260040161042d90610a22565b60405180910390fd5b7f5c963fd7fde519af29d56159e6e3e18db4e5d3e4716c39c87958cf9e4862ed583334604051610467929190610a51565b60405180910390a1565b60036020528060005260406000206000915090508060000154908060010154905082565b60008060011515600060149054906101000a900460ff161515146104ee576040517f08c379a00000000000000000000000000000000000000000000000000000000081526004016104e590610ac6565b60405180910390fd5b343373ffffffffffffffffffffffffffffffffffffffff163111610547576040517f08c379a000000000000000000000000000000000000000000000000000000000815260040161053e90610b32565b60405180910390fd5b600061055161071e565b90506000610560828787610220565b90506000600360003373ffffffffffffffffffffffffffffffffffffffff1673ffffffffffffffffffffffffffffffffffffffff168152602001908152602001600020905060011515821515036106855760018160000160008282546105c69190610b81565b9250508190555060018060008282546105df9190610b81565b925050819055503373ffffffffffffffffffffffffffffffffffffffff166108fc60023461060d9190610bb5565b9081150290604051600060405180830381858888f19350505050158015610638573d6000803e3d6000fd5b507f05bb7924248cee9db500cb69e17c14e314413ba322759d375d60e1cbbff780903488858960405161066e9493929190610c43565b60405180910390a160018394509450505050610717565b60001515821515036107135760018160010160008282546106a69190610b81565b925050819055506001600260008282546106c09190610b81565b925050819055507f05bb7924248cee9db500cb69e17c14e314413ba322759d375d60e1cbbff78090348885896040516106fc9493929190610ce7565b60405180910390a160008394509450505050610717565b5050505b9250929050565b600080600590508091505090565b600080fd5b6000819050919050565b61074481610731565b811461074f57600080fd5b50565b6000813590506107618161073b565b92915050565b60008115159050919050565b61077c81610767565b811461078757600080fd5b50565b60008135905061079981610773565b92915050565b6000806000606084860312156107b8576107b761072c565b5b60006107c686828701610752565b93505060206107d786828701610752565b92505060406107e88682870161078a565b9150509250925092565b6107fb81610767565b82525050565b600060208201905061081660008301846107f2565b92915050565b61082581610731565b82525050565b6000602082019050610840600083018461081c565b92915050565b600073ffffffffffffffffffffffffffffffffffffffff82169050919050565b600061087182610846565b9050919050565b61088181610866565b82525050565b600060208201905061089c6000830184610878565b92915050565b60006108ad82610846565b9050919050565b6108bd816108a2565b81146108c857600080fd5b50565b6000813590506108da816108b4565b92915050565b6000602082840312156108f6576108f561072c565b5b6000610904848285016108cb565b91505092915050565b6000604082019050610922600083018561081c565b61092f602083018461081c565b9392505050565b6000806040838503121561094d5761094c61072c565b5b600061095b85828601610752565b925050602061096c8582860161078a565b9150509250929050565b600060408201905061098b60008301856107f2565b610998602083018461081c565b9392505050565b600082825260208201905092915050565b7f4f6e6c79206f776e65722063616e2063616c6c20746869732066756e6374696f60008201527f6e00000000000000000000000000000000000000000000000000000000000000602082015250565b6000610a0c60218361099f565b9150610a17826109b0565b604082019050919050565b60006020820190508181036000830152610a3b816109ff565b9050919050565b610a4b816108a2565b82525050565b6000604082019050610a666000830185610a42565b610a73602083018461081c565b9392505050565b7f5468652067616d65206973206e6f74206f6e6c696e6500000000000000000000600082015250565b6000610ab060168361099f565b9150610abb82610a7a565b602082019050919050565b60006020820190508181036000830152610adf81610aa3565b9050919050565b7f496e73756666696369656e742066756e64730000000000000000000000000000600082015250565b6000610b1c60128361099f565b9150610b2782610ae6565b602082019050919050565b60006020820190508181036000830152610b4b81610b0f565b9050919050565b7f4e487b7100000000000000000000000000000000000000000000000000000000600052601160045260246000fd5b6000610b8c82610731565b9150610b9783610731565b9250828201905080821115610baf57610bae610b52565b5b92915050565b6000610bc082610731565b9150610bcb83610731565b9250828202610bd981610731565b91508282048414831517610bf057610bef610b52565b5b5092915050565b7f776f6e0000000000000000000000000000000000000000000000000000000000600082015250565b6000610c2d60038361099f565b9150610c3882610bf7565b602082019050919050565b600060a082019050610c58600083018761081c565b610c65602083018661081c565b610c72604083018561081c565b610c7f60608301846107f2565b8181036080830152610c9081610c20565b905095945050505050565b7f6c6f737400000000000000000000000000000000000000000000000000000000600082015250565b6000610cd160048361099f565b9150610cdc82610c9b565b602082019050919050565b600060a082019050610cfc600083018761081c565b610d09602083018661081c565b610d16604083018561081c565b610d2360608301846107f2565b8181036080830152610d3481610cc4565b90509594505050505056fea26469706673582212203c351dd9631a51b2ba96fe94bde150a7fe21c8e879430bcad05bcd8509f171b164736f6c63430008120033","opcodes":"PUSH1 0x80 PUSH1 0x40 MSTORE CALLER PUSH1 0x0 DUP1 PUSH2 0x100 EXP DUP2 SLOAD DUP2 PUSH20 0xFFFFFFFFFFFFFFFFFFFFFFFFFFFFFFFFFFFFFFFF MUL NOT AND SWAP1 DUP4 PUSH20 0xFFFFFFFFFFFFFFFFFFFFFFFFFFFFFFFFFFFFFFFF AND MUL OR SWAP1 SSTORE POP PUSH1 0x1 PUSH1 0x0 PUSH1 0x14 PUSH2 0x100 EXP DUP2 SLOAD DUP2 PUSH1 0xFF MUL NOT AND SWAP1 DUP4 ISZERO ISZERO MUL OR SWAP1 SSTORE POP PUSH1 0x0 PUSH1 0x1 DUP2 SWAP1 SSTORE POP PUSH1 0x0 PUSH1 0x2 DUP2 SWAP1 SSTORE POP PUSH2 0xD75 DUP1 PUSH2 0x7E PUSH1 0x0 CODECOPY PUSH1 0x0 RETURN INVALID PUSH1 0x80 PUSH1 0x40 MSTORE PUSH1 0x4 CALLDATASIZE LT PUSH2 0x91 JUMPI PUSH1 0x0 CALLDATALOAD PUSH1 0xE0 SHR DUP1 PUSH4 0x8DA5CB5B GT PUSH2 0x59 JUMPI DUP1 PUSH4 0x8DA5CB5B EQ PUSH2 0x15E JUMPI DUP1 PUSH4 0xC3AABF2D EQ PUSH2 0x189 JUMPI DUP1 PUSH4 0xE169BF6C EQ PUSH2 0x1A7 JUMPI DUP1 PUSH4 0xE2EB41FF EQ PUSH2 0x1B1 JUMPI DUP1 PUSH4 0xFC541EF3 EQ PUSH2 0x1EF JUMPI PUSH2 0x91 JUMP JUMPDEST DUP1 PUSH4 0x171273A5 EQ PUSH2 0x96 JUMPI DUP1 PUSH4 0x24600FC3 EQ PUSH2 0xD3 JUMPI DUP1 PUSH4 0x24DE908D EQ PUSH2 0xEA JUMPI DUP1 PUSH4 0x35E1983E EQ PUSH2 0x115 JUMPI DUP1 PUSH4 0x6F22D6A5 EQ PUSH2 0x133 JUMPI JUMPDEST PUSH1 0x0 DUP1 REVERT JUMPDEST CALLVALUE DUP1 ISZERO PUSH2 0xA2 JUMPI PUSH1 0x0 DUP1 REVERT JUMPDEST POP PUSH2 0xBD PUSH1 0x4 DUP1 CALLDATASIZE SUB DUP2 ADD SWAP1 PUSH2 0xB8 SWAP2 SWAP1 PUSH2 0x79F JUMP JUMPDEST PUSH2 0x220 JUMP JUMPDEST PUSH1 0x40 MLOAD PUSH2 0xCA SWAP2 SWAP1 PUSH2 0x801 JUMP JUMPDEST PUSH1 0x40 MLOAD DUP1 SWAP2 SUB SWAP1 RETURN JUMPDEST CALLVALUE DUP1 ISZERO PUSH2 0xDF JUMPI PUSH1 0x0 DUP1 REVERT JUMPDEST POP PUSH2 0xE8 PUSH2 0x28D JUMP JUMPDEST STOP JUMPDEST CALLVALUE DUP1 ISZERO PUSH2 0xF6 JUMPI PUSH1 0x0 DUP1 REVERT JUMPDEST POP PUSH2 0xFF PUSH2 0x364 JUMP JUMPDEST PUSH1 0x40 MLOAD PUSH2 0x10C SWAP2 SWAP1 PUSH2 0x82B JUMP JUMPDEST PUSH1 0x40 MLOAD DUP1 SWAP2 SUB SWAP1 RETURN JUMPDEST PUSH2 0x11D PUSH2 0x36A JUMP JUMPDEST PUSH1 0x40 MLOAD PUSH2 0x12A SWAP2 SWAP1 PUSH2 0x82B JUMP JUMPDEST PUSH1 0x40 MLOAD DUP1 SWAP2 SUB SWAP1 RETURN JUMPDEST CALLVALUE DUP1 ISZERO PUSH2 0x13F JUMPI PUSH1 0x0 DUP1 REVERT JUMPDEST POP PUSH2 0x148 PUSH2 0x374 JUMP JUMPDEST PUSH1 0x40 MLOAD PUSH2 0x155 SWAP2 SWAP1 PUSH2 0x82B JUMP JUMPDEST PUSH1 0x40 MLOAD DUP1 SWAP2 SUB SWAP1 RETURN JUMPDEST CALLVALUE DUP1 ISZERO PUSH2 0x16A JUMPI PUSH1 0x0 DUP1 REVERT JUMPDEST POP PUSH2 0x173 PUSH2 0x37A JUMP JUMPDEST PUSH1 0x40 MLOAD PUSH2 0x180 SWAP2 SWAP1 PUSH2 0x887 JUMP JUMPDEST PUSH1 0x40 MLOAD DUP1 SWAP2 SUB SWAP1 RETURN JUMPDEST PUSH2 0x191 PUSH2 0x39E JUMP JUMPDEST PUSH1 0x40 MLOAD PUSH2 0x19E SWAP2 SWAP1 PUSH2 0x82B JUMP JUMPDEST PUSH1 0x40 MLOAD DUP1 SWAP2 SUB SWAP1 RETURN JUMPDEST PUSH2 0x1AF PUSH2 0x3A8 JUMP JUMPDEST STOP JUMPDEST CALLVALUE DUP1 ISZERO PUSH2 0x1BD JUMPI PUSH1 0x0 DUP1 REVERT JUMPDEST POP PUSH2 0x1D8 PUSH1 0x4 DUP1 CALLDATASIZE SUB DUP2 ADD SWAP1 PUSH2 0x1D3 SWAP2 SWAP1 PUSH2 0x8E0 JUMP JUMPDEST PUSH2 0x471 JUMP JUMPDEST PUSH1 0x40 MLOAD PUSH2 0x1E6 SWAP3 SWAP2 SWAP1 PUSH2 0x90D JUMP JUMPDEST PUSH1 0x40 MLOAD DUP1 SWAP2 SUB SWAP1 RETURN JUMPDEST PUSH2 0x209 PUSH1 0x4 DUP1 CALLDATASIZE SUB DUP2 ADD SWAP1 PUSH2 0x204 SWAP2 SWAP1 PUSH2 0x936 JUMP JUMPDEST PUSH2 0x495 JUMP JUMPDEST PUSH1 0x40 MLOAD PUSH2 0x217 SWAP3 SWAP2 SWAP1 PUSH2 0x976 JUMP JUMPDEST PUSH1 0x40 MLOAD DUP1 SWAP2 SUB SWAP1 RETURN JUMPDEST PUSH1 0x0 PUSH1 0x1 ISZERO ISZERO DUP3 ISZERO ISZERO SUB PUSH2 0x255 JUMPI DUP4 DUP4 GT ISZERO PUSH2 0x23F JUMPI PUSH1 0x1 SWAP1 POP PUSH2 0x286 JUMP JUMPDEST DUP4 DUP4 LT ISZERO PUSH2 0x250 JUMPI PUSH1 0x0 SWAP1 POP PUSH2 0x286 JUMP JUMPDEST PUSH2 0x285 JUMP JUMPDEST PUSH1 0x0 ISZERO ISZERO DUP3 ISZERO ISZERO SUB PUSH2 0x284 JUMPI DUP3 DUP5 GT ISZERO PUSH2 0x272 JUMPI PUSH1 0x1 SWAP1 POP PUSH2 0x286 JUMP JUMPDEST DUP3 DUP5 LT ISZERO PUSH2 0x283 JUMPI PUSH1 0x0 SWAP1 POP PUSH2 0x286 JUMP JUMPDEST JUMPDEST JUMPDEST JUMPDEST SWAP4 SWAP3 POP POP POP JUMP JUMPDEST PUSH1 0x0 DUP1 SLOAD SWAP1 PUSH2 0x100 EXP SWAP1 DIV PUSH20 0xFFFFFFFFFFFFFFFFFFFFFFFFFFFFFFFFFFFFFFFF AND PUSH20 0xFFFFFFFFFFFFFFFFFFFFFFFFFFFFFFFFFFFFFFFF AND CALLER PUSH20 0xFFFFFFFFFFFFFFFFFFFFFFFFFFFFFFFFFFFFFFFF AND EQ PUSH2 0x31B JUMPI PUSH1 0x40 MLOAD PUSH32 0x8C379A000000000000000000000000000000000000000000000000000000000 DUP2 MSTORE PUSH1 0x4 ADD PUSH2 0x312 SWAP1 PUSH2 0xA22 JUMP JUMPDEST PUSH1 0x40 MLOAD DUP1 SWAP2 SUB SWAP1 REVERT JUMPDEST CALLER PUSH20 0xFFFFFFFFFFFFFFFFFFFFFFFFFFFFFFFFFFFFFFFF AND PUSH2 0x8FC SELFBALANCE SWAP1 DUP2 ISZERO MUL SWAP1 PUSH1 0x40 MLOAD PUSH1 0x0 PUSH1 0x40 MLOAD DUP1 DUP4 SUB DUP2 DUP6 DUP9 DUP9 CALL SWAP4 POP POP POP POP ISZERO DUP1 ISZERO PUSH2 0x361 JUMPI RETURNDATASIZE PUSH1 0x0 DUP1 RETURNDATACOPY RETURNDATASIZE PUSH1 0x0 REVERT JUMPDEST POP JUMP JUMPDEST PUSH1 0x1 SLOAD DUP2 JUMP JUMPDEST PUSH1 0x0 PUSH1 0x2 SLOAD SWAP1 POP SWAP1 JUMP JUMPDEST PUSH1 0x2 SLOAD DUP2 JUMP JUMPDEST PUSH1 0x0 DUP1 SLOAD SWAP1 PUSH2 0x100 EXP SWAP1 DIV PUSH20 0xFFFFFFFFFFFFFFFFFFFFFFFFFFFFFFFFFFFFFFFF AND DUP2 JUMP JUMPDEST PUSH1 0x0 PUSH1 0x1 SLOAD SWAP1 POP SWAP1 JUMP JUMPDEST PUSH1 0x0 DUP1 SLOAD SWAP1 PUSH2 0x100 EXP SWAP1 DIV PUSH20 0xFFFFFFFFFFFFFFFFFFFFFFFFFFFFFFFFFFFFFFFF AND PUSH20 0xFFFFFFFFFFFFFFFFFFFFFFFFFFFFFFFFFFFFFFFF AND CALLER PUSH20 0xFFFFFFFFFFFFFFFFFFFFFFFFFFFFFFFFFFFFFFFF AND EQ PUSH2 0x436 JUMPI PUSH1 0x40 MLOAD PUSH32 0x8C379A000000000000000000000000000000000000000000000000000000000 DUP2 MSTORE PUSH1 0x4 ADD PUSH2 0x42D SWAP1 PUSH2 0xA22 JUMP JUMPDEST PUSH1 0x40 MLOAD DUP1 SWAP2 SUB SWAP1 REVERT JUMPDEST PUSH32 0x5C963FD7FDE519AF29D56159E6E3E18DB4E5D3E4716C39C87958CF9E4862ED58 CALLER CALLVALUE PUSH1 0x40 MLOAD PUSH2 0x467 SWAP3 SWAP2 SWAP1 PUSH2 0xA51 JUMP JUMPDEST PUSH1 0x40 MLOAD DUP1 SWAP2 SUB SWAP1 LOG1 JUMP JUMPDEST PUSH1 0x3 PUSH1 0x20 MSTORE DUP1 PUSH1 0x0 MSTORE PUSH1 0x40 PUSH1 0x0 KECCAK256 PUSH1 0x0 SWAP2 POP SWAP1 POP DUP1 PUSH1 0x0 ADD SLOAD SWAP1 DUP1 PUSH1 0x1 ADD SLOAD SWAP1 POP DUP3 JUMP JUMPDEST PUSH1 0x0 DUP1 PUSH1 0x1 ISZERO ISZERO PUSH1 0x0 PUSH1 0x14 SWAP1 SLOAD SWAP1 PUSH2 0x100 EXP SWAP1 DIV PUSH1 0xFF AND ISZERO ISZERO EQ PUSH2 0x4EE JUMPI PUSH1 0x40 MLOAD PUSH32 0x8C379A000000000000000000000000000000000000000000000000000000000 DUP2 MSTORE PUSH1 0x4 ADD PUSH2 0x4E5 SWAP1 PUSH2 0xAC6 JUMP JUMPDEST PUSH1 0x40 MLOAD DUP1 SWAP2 SUB SWAP1 REVERT JUMPDEST CALLVALUE CALLER PUSH20 0xFFFFFFFFFFFFFFFFFFFFFFFFFFFFFFFFFFFFFFFF AND BALANCE GT PUSH2 0x547 JUMPI PUSH1 0x40 MLOAD PUSH32 0x8C379A000000000000000000000000000000000000000000000000000000000 DUP2 MSTORE PUSH1 0x4 ADD PUSH2 0x53E SWAP1 PUSH2 0xB32 JUMP JUMPDEST PUSH1 0x40 MLOAD DUP1 SWAP2 SUB SWAP1 REVERT JUMPDEST PUSH1 0x0 PUSH2 0x551 PUSH2 0x71E JUMP JUMPDEST SWAP1 POP PUSH1 0x0 PUSH2 0x560 DUP3 DUP8 DUP8 PUSH2 0x220 JUMP JUMPDEST SWAP1 POP PUSH1 0x0 PUSH1 0x3 PUSH1 0x0 CALLER PUSH20 0xFFFFFFFFFFFFFFFFFFFFFFFFFFFFFFFFFFFFFFFF AND PUSH20 0xFFFFFFFFFFFFFFFFFFFFFFFFFFFFFFFFFFFFFFFF AND DUP2 MSTORE PUSH1 0x20 ADD SWAP1 DUP2 MSTORE PUSH1 0x20 ADD PUSH1 0x0 KECCAK256 SWAP1 POP PUSH1 0x1 ISZERO ISZERO DUP3 ISZERO ISZERO SUB PUSH2 0x685 JUMPI PUSH1 0x1 DUP2 PUSH1 0x0 ADD PUSH1 0x0 DUP3 DUP3 SLOAD PUSH2 0x5C6 SWAP2 SWAP1 PUSH2 0xB81 JUMP JUMPDEST SWAP3 POP POP DUP2 SWAP1 SSTORE POP PUSH1 0x1 DUP1 PUSH1 0x0 DUP3 DUP3 SLOAD PUSH2 0x5DF SWAP2 SWAP1 PUSH2 0xB81 JUMP JUMPDEST SWAP3 POP POP DUP2 SWAP1 SSTORE POP CALLER PUSH20 0xFFFFFFFFFFFFFFFFFFFFFFFFFFFFFFFFFFFFFFFF AND PUSH2 0x8FC PUSH1 0x2 CALLVALUE PUSH2 0x60D SWAP2 SWAP1 PUSH2 0xBB5 JUMP JUMPDEST SWAP1 DUP2 ISZERO MUL SWAP1 PUSH1 0x40 MLOAD PUSH1 0x0 PUSH1 0x40 MLOAD DUP1 DUP4 SUB DUP2 DUP6 DUP9 DUP9 CALL SWAP4 POP POP POP POP ISZERO DUP1 ISZERO PUSH2 0x638 JUMPI RETURNDATASIZE PUSH1 0x0 DUP1 RETURNDATACOPY RETURNDATASIZE PUSH1 0x0 REVERT JUMPDEST POP PUSH32 0x5BB7924248CEE9DB500CB69E17C14E314413BA322759D375D60E1CBBFF78090 CALLVALUE DUP9 DUP6 DUP10 PUSH1 0x40 MLOAD PUSH2 0x66E SWAP5 SWAP4 SWAP3 SWAP2 SWAP1 PUSH2 0xC43 JUMP JUMPDEST PUSH1 0x40 MLOAD DUP1 SWAP2 SUB SWAP1 LOG1 PUSH1 0x1 DUP4 SWAP5 POP SWAP5 POP POP POP POP PUSH2 0x717 JUMP JUMPDEST PUSH1 0x0 ISZERO ISZERO DUP3 ISZERO ISZERO SUB PUSH2 0x713 JUMPI PUSH1 0x1 DUP2 PUSH1 0x1 ADD PUSH1 0x0 DUP3 DUP3 SLOAD PUSH2 0x6A6 SWAP2 SWAP1 PUSH2 0xB81 JUMP JUMPDEST SWAP3 POP POP DUP2 SWAP1 SSTORE POP PUSH1 0x1 PUSH1 0x2 PUSH1 0x0 DUP3 DUP3 SLOAD PUSH2 0x6C0 SWAP2 SWAP1 PUSH2 0xB81 JUMP JUMPDEST SWAP3 POP POP DUP2 SWAP1 SSTORE POP PUSH32 0x5BB7924248CEE9DB500CB69E17C14E314413BA322759D375D60E1CBBFF78090 CALLVALUE DUP9 DUP6 DUP10 PUSH1 0x40 MLOAD PUSH2 0x6FC SWAP5 SWAP4 SWAP3 SWAP2 SWAP1 PUSH2 0xCE7 JUMP JUMPDEST PUSH1 0x40 MLOAD DUP1 SWAP2 SUB SWAP1 LOG1 PUSH1 0x0 DUP4 SWAP5 POP SWAP5 POP POP POP POP PUSH2 0x717 JUMP JUMPDEST POP POP POP JUMPDEST SWAP3 POP SWAP3 SWAP1 POP JUMP JUMPDEST PUSH1 0x0 DUP1 PUSH1 0x5 SWAP1 POP DUP1 SWAP2 POP POP SWAP1 JUMP JUMPDEST PUSH1 0x0 DUP1 REVERT JUMPDEST PUSH1 0x0 DUP2 SWAP1 POP SWAP2 SWAP1 POP JUMP JUMPDEST PUSH2 0x744 DUP2 PUSH2 0x731 JUMP JUMPDEST DUP2 EQ PUSH2 0x74F JUMPI PUSH1 0x0 DUP1 REVERT JUMPDEST POP JUMP JUMPDEST PUSH1 0x0 DUP2 CALLDATALOAD SWAP1 POP PUSH2 0x761 DUP2 PUSH2 0x73B JUMP JUMPDEST SWAP3 SWAP2 POP POP JUMP JUMPDEST PUSH1 0x0 DUP2 ISZERO ISZERO SWAP1 POP SWAP2 SWAP1 POP JUMP JUMPDEST PUSH2 0x77C DUP2 PUSH2 0x767 JUMP JUMPDEST DUP2 EQ PUSH2 0x787 JUMPI PUSH1 0x0 DUP1 REVERT JUMPDEST POP JUMP JUMPDEST PUSH1 0x0 DUP2 CALLDATALOAD SWAP1 POP PUSH2 0x799 DUP2 PUSH2 0x773 JUMP JUMPDEST SWAP3 SWAP2 POP POP JUMP JUMPDEST PUSH1 0x0 DUP1 PUSH1 0x0 PUSH1 0x60 DUP5 DUP7 SUB SLT ISZERO PUSH2 0x7B8 JUMPI PUSH2 0x7B7 PUSH2 0x72C JUMP JUMPDEST JUMPDEST PUSH1 0x0 PUSH2 0x7C6 DUP7 DUP3 DUP8 ADD PUSH2 0x752 JUMP JUMPDEST SWAP4 POP POP PUSH1 0x20 PUSH2 0x7D7 DUP7 DUP3 DUP8 ADD PUSH2 0x752 JUMP JUMPDEST SWAP3 POP POP PUSH1 0x40 PUSH2 0x7E8 DUP7 DUP3 DUP8 ADD PUSH2 0x78A JUMP JUMPDEST SWAP2 POP POP SWAP3 POP SWAP3 POP SWAP3 JUMP JUMPDEST PUSH2 0x7FB DUP2 PUSH2 0x767 JUMP JUMPDEST DUP3 MSTORE POP POP JUMP JUMPDEST PUSH1 0x0 PUSH1 0x20 DUP3 ADD SWAP1 POP PUSH2 0x816 PUSH1 0x0 DUP4 ADD DUP5 PUSH2 0x7F2 JUMP JUMPDEST SWAP3 SWAP2 POP POP JUMP JUMPDEST PUSH2 0x825 DUP2 PUSH2 0x731 JUMP JUMPDEST DUP3 MSTORE POP POP JUMP JUMPDEST PUSH1 0x0 PUSH1 0x20 DUP3 ADD SWAP1 POP PUSH2 0x840 PUSH1 0x0 DUP4 ADD DUP5 PUSH2 0x81C JUMP JUMPDEST SWAP3 SWAP2 POP POP JUMP JUMPDEST PUSH1 0x0 PUSH20 0xFFFFFFFFFFFFFFFFFFFFFFFFFFFFFFFFFFFFFFFF DUP3 AND SWAP1 POP SWAP2 SWAP1 POP JUMP JUMPDEST PUSH1 0x0 PUSH2 0x871 DUP3 PUSH2 0x846 JUMP JUMPDEST SWAP1 POP SWAP2 SWAP1 POP JUMP JUMPDEST PUSH2 0x881 DUP2 PUSH2 0x866 JUMP JUMPDEST DUP3 MSTORE POP POP JUMP JUMPDEST PUSH1 0x0 PUSH1 0x20 DUP3 ADD SWAP1 POP PUSH2 0x89C PUSH1 0x0 DUP4 ADD DUP5 PUSH2 0x878 JUMP JUMPDEST SWAP3 SWAP2 POP POP JUMP JUMPDEST PUSH1 0x0 PUSH2 0x8AD DUP3 PUSH2 0x846 JUMP JUMPDEST SWAP1 POP SWAP2 SWAP1 POP JUMP JUMPDEST PUSH2 0x8BD DUP2 PUSH2 0x8A2 JUMP JUMPDEST DUP2 EQ PUSH2 0x8C8 JUMPI PUSH1 0x0 DUP1 REVERT JUMPDEST POP JUMP JUMPDEST PUSH1 0x0 DUP2 CALLDATALOAD SWAP1 POP PUSH2 0x8DA DUP2 PUSH2 0x8B4 JUMP JUMPDEST SWAP3 SWAP2 POP POP JUMP JUMPDEST PUSH1 0x0 PUSH1 0x20 DUP3 DUP5 SUB SLT ISZERO PUSH2 0x8F6 JUMPI PUSH2 0x8F5 PUSH2 0x72C JUMP JUMPDEST JUMPDEST PUSH1 0x0 PUSH2 0x904 DUP5 DUP3 DUP6 ADD PUSH2 0x8CB JUMP JUMPDEST SWAP2 POP POP SWAP3 SWAP2 POP POP JUMP JUMPDEST PUSH1 0x0 PUSH1 0x40 DUP3 ADD SWAP1 POP PUSH2 0x922 PUSH1 0x0 DUP4 ADD DUP6 PUSH2 0x81C JUMP JUMPDEST PUSH2 0x92F PUSH1 0x20 DUP4 ADD DUP5 PUSH2 0x81C JUMP JUMPDEST SWAP4 SWAP3 POP POP POP JUMP JUMPDEST PUSH1 0x0 DUP1 PUSH1 0x40 DUP4 DUP6 SUB SLT ISZERO PUSH2 0x94D JUMPI PUSH2 0x94C PUSH2 0x72C JUMP JUMPDEST JUMPDEST PUSH1 0x0 PUSH2 0x95B DUP6 DUP3 DUP7 ADD PUSH2 0x752 JUMP JUMPDEST SWAP3 POP POP PUSH1 0x20 PUSH2 0x96C DUP6 DUP3 DUP7 ADD PUSH2 0x78A JUMP JUMPDEST SWAP2 POP POP SWAP3 POP SWAP3 SWAP1 POP JUMP JUMPDEST PUSH1 0x0 PUSH1 0x40 DUP3 ADD SWAP1 POP PUSH2 0x98B PUSH1 0x0 DUP4 ADD DUP6 PUSH2 0x7F2 JUMP JUMPDEST PUSH2 0x998 PUSH1 0x20 DUP4 ADD DUP5 PUSH2 0x81C JUMP JUMPDEST SWAP4 SWAP3 POP POP POP JUMP JUMPDEST PUSH1 0x0 DUP3 DUP3 MSTORE PUSH1 0x20 DUP3 ADD SWAP1 POP SWAP3 SWAP2 POP POP JUMP JUMPDEST PUSH32 0x4F6E6C79206F776E65722063616E2063616C6C20746869732066756E6374696F PUSH1 0x0 DUP3 ADD MSTORE PUSH32 0x6E00000000000000000000000000000000000000000000000000000000000000 PUSH1 0x20 DUP3 ADD MSTORE POP JUMP JUMPDEST PUSH1 0x0 PUSH2 0xA0C PUSH1 0x21 DUP4 PUSH2 0x99F JUMP JUMPDEST SWAP2 POP PUSH2 0xA17 DUP3 PUSH2 0x9B0 JUMP JUMPDEST PUSH1 0x40 DUP3 ADD SWAP1 POP SWAP2 SWAP1 POP JUMP JUMPDEST PUSH1 0x0 PUSH1 0x20 DUP3 ADD SWAP1 POP DUP2 DUP2 SUB PUSH1 0x0 DUP4 ADD MSTORE PUSH2 0xA3B DUP2 PUSH2 0x9FF JUMP JUMPDEST SWAP1 POP SWAP2 SWAP1 POP JUMP JUMPDEST PUSH2 0xA4B DUP2 PUSH2 0x8A2 JUMP JUMPDEST DUP3 MSTORE POP POP JUMP JUMPDEST PUSH1 0x0 PUSH1 0x40 DUP3 ADD SWAP1 POP PUSH2 0xA66 PUSH1 0x0 DUP4 ADD DUP6 PUSH2 0xA42 JUMP JUMPDEST PUSH2 0xA73 PUSH1 0x20 DUP4 ADD DUP5 PUSH2 0x81C JUMP JUMPDEST SWAP4 SWAP3 POP POP POP JUMP JUMPDEST PUSH32 0x5468652067616D65206973206E6F74206F6E6C696E6500000000000000000000 PUSH1 0x0 DUP3 ADD MSTORE POP JUMP JUMPDEST PUSH1 0x0 PUSH2 0xAB0 PUSH1 0x16 DUP4 PUSH2 0x99F JUMP JUMPDEST SWAP2 POP PUSH2 0xABB DUP3 PUSH2 0xA7A JUMP JUMPDEST PUSH1 0x20 DUP3 ADD SWAP1 POP SWAP2 SWAP1 POP JUMP JUMPDEST PUSH1 0x0 PUSH1 0x20 DUP3 ADD SWAP1 POP DUP2 DUP2 SUB PUSH1 0x0 DUP4 ADD MSTORE PUSH2 0xADF DUP2 PUSH2 0xAA3 JUMP JUMPDEST SWAP1 POP SWAP2 SWAP1 POP JUMP JUMPDEST PUSH32 0x496E73756666696369656E742066756E64730000000000000000000000000000 PUSH1 0x0 DUP3 ADD MSTORE POP JUMP JUMPDEST PUSH1 0x0 PUSH2 0xB1C PUSH1 0x12 DUP4 PUSH2 0x99F JUMP JUMPDEST SWAP2 POP PUSH2 0xB27 DUP3 PUSH2 0xAE6 JUMP JUMPDEST PUSH1 0x20 DUP3 ADD SWAP1 POP SWAP2 SWAP1 POP JUMP JUMPDEST PUSH1 0x0 PUSH1 0x20 DUP3 ADD SWAP1 POP DUP2 DUP2 SUB PUSH1 0x0 DUP4 ADD MSTORE PUSH2 0xB4B DUP2 PUSH2 0xB0F JUMP JUMPDEST SWAP1 POP SWAP2 SWAP1 POP JUMP JUMPDEST PUSH32 0x4E487B7100000000000000000000000000000000000000000000000000000000 PUSH1 0x0 MSTORE PUSH1 0x11 PUSH1 0x4 MSTORE PUSH1 0x24 PUSH1 0x0 REVERT JUMPDEST PUSH1 0x0 PUSH2 0xB8C DUP3 PUSH2 0x731 JUMP JUMPDEST SWAP2 POP PUSH2 0xB97 DUP4 PUSH2 0x731 JUMP JUMPDEST SWAP3 POP DUP3 DUP3 ADD SWAP1 POP DUP1 DUP3 GT ISZERO PUSH2 0xBAF JUMPI PUSH2 0xBAE PUSH2 0xB52 JUMP JUMPDEST JUMPDEST SWAP3 SWAP2 POP POP JUMP JUMPDEST PUSH1 0x0 PUSH2 0xBC0 DUP3 PUSH2 0x731 JUMP JUMPDEST SWAP2 POP PUSH2 0xBCB DUP4 PUSH2 0x731 JUMP JUMPDEST SWAP3 POP DUP3 DUP3 MUL PUSH2 0xBD9 DUP2 PUSH2 0x731 JUMP JUMPDEST SWAP2 POP DUP3 DUP3 DIV DUP5 EQ DUP4 ISZERO OR PUSH2 0xBF0 JUMPI PUSH2 0xBEF PUSH2 0xB52 JUMP JUMPDEST JUMPDEST POP SWAP3 SWAP2 POP POP JUMP JUMPDEST PUSH32 0x776F6E0000000000000000000000000000000000000000000000000000000000 PUSH1 0x0 DUP3 ADD MSTORE POP JUMP JUMPDEST PUSH1 0x0 PUSH2 0xC2D PUSH1 0x3 DUP4 PUSH2 0x99F JUMP JUMPDEST SWAP2 POP PUSH2 0xC38 DUP3 PUSH2 0xBF7 JUMP JUMPDEST PUSH1 0x20 DUP3 ADD SWAP1 POP SWAP2 SWAP1 POP JUMP JUMPDEST PUSH1 0x0 PUSH1 0xA0 DUP3 ADD SWAP1 POP PUSH2 0xC58 PUSH1 0x0 DUP4 ADD DUP8 PUSH2 0x81C JUMP JUMPDEST PUSH2 0xC65 PUSH1 0x20 DUP4 ADD DUP7 PUSH2 0x81C JUMP JUMPDEST PUSH2 0xC72 PUSH1 0x40 DUP4 ADD DUP6 PUSH2 0x81C JUMP JUMPDEST PUSH2 0xC7F PUSH1 0x60 DUP4 ADD DUP5 PUSH2 0x7F2 JUMP JUMPDEST DUP2 DUP2 SUB PUSH1 0x80 DUP4 ADD MSTORE PUSH2 0xC90 DUP2 PUSH2 0xC20 JUMP JUMPDEST SWAP1 POP SWAP6 SWAP5 POP POP POP POP POP JUMP JUMPDEST PUSH32 0x6C6F737400000000000000000000000000000000000000000000000000000000 PUSH1 0x0 DUP3 ADD MSTORE POP JUMP JUMPDEST PUSH1 0x0 PUSH2 0xCD1 PUSH1 0x4 DUP4 PUSH2 0x99F JUMP JUMPDEST SWAP2 POP PUSH2 0xCDC DUP3 PUSH2 0xC9B JUMP JUMPDEST PUSH1 0x20 DUP3 ADD SWAP1 POP SWAP2 SWAP1 POP JUMP JUMPDEST PUSH1 0x0 PUSH1 0xA0 DUP3 ADD SWAP1 POP PUSH2 0xCFC PUSH1 0x0 DUP4 ADD DUP8 PUSH2 0x81C JUMP JUMPDEST PUSH2 0xD09 PUSH1 0x20 DUP4 ADD DUP7 PUSH2 0x81C JUMP JUMPDEST PUSH2 0xD16 PUSH1 0x40 DUP4 ADD DUP6 PUSH2 0x81C JUMP JUMPDEST PUSH2 0xD23 PUSH1 0x60 DUP4 ADD DUP5 PUSH2 0x7F2 JUMP JUMPDEST DUP2 DUP2 SUB PUSH1 0x80 DUP4 ADD MSTORE PUSH2 0xD34 DUP2 PUSH2 0xCC4 JUMP JUMPDEST SWAP1 POP SWAP6 SWAP5 POP POP POP POP POP JUMP INVALID LOG2 PUSH5 0x6970667358 0x22 SLT KECCAK256 EXTCODECOPY CALLDATALOAD SAR 0xD9 PUSH4 0x1A51B2BA SWAP7 INVALID SWAP5 0xBD 0xE1 POP 0xA7 INVALID 0x21 0xC8 0xE8 PUSH26 0x430BCAD05BCD8509F171B164736F6C6343000812003300000000 "},"methodIdentifiers":{"determineWinner(uint256,uint256,bool)":"171273a5","fundGame()":"e169bf6c","getLosses()":"35e1983e","getWins()":"c3aabf2d","losses()":"6f22d6a5","owner()":"8da5cb5b","players(address)":"e2eb41ff","winOrLose(uint256,bool)":"fc541ef3","wins()":"24de908d","withdrawFunds()":"24600fc3"}}}}}