{
  "_format": "hh-sol-artifact-1",
  "contractName": "Gaming",
  "sourceName": "contracts/Gaming.sol",
  "abi": [
    {
      "inputs": [],
      "stateMutability": "payable",
      "type": "constructor"
    },
    {
      "anonymous": false,
      "inputs": [
        {
          "indexed": false,
          "internalType": "address",
          "name": "funder",
          "type": "address"
        },
        {
          "indexed": false,
          "internalType": "uint256",
          "name": "amount",
          "type": "uint256"
        }
      ],
      "name": "GameFunded",
      "type": "event"
    },
    {
      "anonymous": false,
      "inputs": [
        {
          "indexed": false,
          "internalType": "address",
          "name": "player",
          "type": "address"
        },
        {
          "indexed": false,
          "internalType": "uint256",
          "name": "amount",
          "type": "uint256"
        },
        {
          "indexed": false,
          "internalType": "uint256",
          "name": "mysteryNumber",
          "type": "uint256"
        },
        {
          "indexed": false,
          "internalType": "uint256",
          "name": "displayedNumber",
          "type": "uint256"
        }
      ],
      "name": "PlayerLost",
      "type": "event"
    },
    {
      "anonymous": false,
      "inputs": [
        {
          "indexed": false,
          "internalType": "address",
          "name": "player",
          "type": "address"
        },
        {
          "indexed": false,
          "internalType": "uint256",
          "name": "amount",
          "type": "uint256"
        },
        {
          "indexed": false,
          "internalType": "uint256",
          "name": "mysteryNumber",
          "type": "uint256"
        },
        {
          "indexed": false,
          "internalType": "uint256",
          "name": "displayedNumber",
          "type": "uint256"
        }
      ],
      "name": "PlayerWon",
      "type": "event"
    },
    {
      "anonymous": false,
      "inputs": [
        {
          "indexed": false,
          "internalType": "uint256",
          "name": "wager",
          "type": "uint256"
        },
        {
          "indexed": false,
          "internalType": "uint256",
          "name": "playerNumber",
          "type": "uint256"
        },
        {
          "indexed": false,
          "internalType": "uint256",
          "name": "mysteryNumber",
          "type": "uint256"
        },
        {
          "indexed": false,
          "internalType": "bool",
          "name": "guess",
          "type": "bool"
        },
        {
          "indexed": false,
          "internalType": "string",
          "name": "result",
          "type": "string"
        }
      ],
      "name": "RoundComplete",
      "type": "event"
    },
    {
      "inputs": [
        {
          "internalType": "uint256",
          "name": "mysteryNumber",
          "type": "uint256"
        },
        {
          "internalType": "uint256",
          "name": "myNumber",
          "type": "uint256"
        },
        {
          "internalType": "bool",
          "name": "guess",
          "type": "bool"
        }
      ],
      "name": "determineWinner",
      "outputs": [
        {
          "internalType": "bool",
          "name": "",
          "type": "bool"
        }
      ],
      "stateMutability": "pure",
      "type": "function"
    },
    {
      "inputs": [],
      "name": "fundGame",
      "outputs": [],
      "stateMutability": "payable",
      "type": "function"
    },
    {
      "inputs": [],
      "name": "getLosses",
      "outputs": [
        {
          "internalType": "uint256",
          "name": "",
          "type": "uint256"
        }
      ],
      "stateMutability": "payable",
      "type": "function"
    },
    {
      "inputs": [],
      "name": "getWins",
      "outputs": [
        {
          "internalType": "uint256",
          "name": "",
          "type": "uint256"
        }
      ],
      "stateMutability": "payable",
      "type": "function"
    },
    {
      "inputs": [],
      "name": "losses",
      "outputs": [
        {
          "internalType": "uint256",
          "name": "",
          "type": "uint256"
        }
      ],
      "stateMutability": "view",
      "type": "function"
    },
    {
      "inputs": [],
      "name": "owner",
      "outputs": [
        {
          "internalType": "address payable",
          "name": "",
          "type": "address"
        }
      ],
      "stateMutability": "view",
      "type": "function"
    },
    {
      "inputs": [
        {
          "internalType": "address",
          "name": "",
          "type": "address"
        }
      ],
      "name": "players",
      "outputs": [
        {
          "internalType": "uint256",
          "name": "wins",
          "type": "uint256"
        },
        {
          "internalType": "uint256",
          "name": "losses",
          "type": "uint256"
        }
      ],
      "stateMutability": "view",
      "type": "function"
    },
    {
      "inputs": [
        {
          "internalType": "uint256",
          "name": "display",
          "type": "uint256"
        },
        {
          "internalType": "bool",
          "name": "guess",
          "type": "bool"
        }
      ],
      "name": "winOrLose",
      "outputs": [
        {
          "internalType": "bool",
          "name": "",
          "type": "bool"
        },
        {
          "internalType": "uint256",
          "name": "",
          "type": "uint256"
        }
      ],
      "stateMutability": "payable",
      "type": "function"
    },
    {
      "inputs": [],
      "name": "wins",
      "outputs": [
        {
          "internalType": "uint256",
          "name": "",
          "type": "uint256"
        }
      ],
      "stateMutability": "view",
      "type": "function"
    },
    {
      "inputs": [],
      "name": "withdrawFunds",
      "outputs": [],
      "stateMutability": "nonpayable",
      "type": "function"
    }
  ],
  "bytecode": "0x6080604052336000806101000a81548173ffffffffffffffffffffffffffffffffffffffff021916908373ffffffffffffffffffffffffffffffffffffffff1602179055506001600060146101000a81548160ff02191690831515021790555060006001819055506000600281905550610d758061007e6000396000f3fe6080604052600436106100915760003560e01c80638da5cb5b116100595780638da5cb5b1461015e578063c3aabf2d14610189578063e169bf6c146101a7578063e2eb41ff146101b1578063fc541ef3146101ef57610091565b8063171273a51461009657806324600fc3146100d357806324de908d146100ea57806335e1983e146101155780636f22d6a514610133575b600080fd5b3480156100a257600080fd5b506100bd60048036038101906100b8919061079f565b610220565b6040516100ca9190610801565b60405180910390f35b3480156100df57600080fd5b506100e861028d565b005b3480156100f657600080fd5b506100ff610364565b60405161010c919061082b565b60405180910390f35b61011d61036a565b60405161012a919061082b565b60405180910390f35b34801561013f57600080fd5b50610148610374565b604051610155919061082b565b60405180910390f35b34801561016a57600080fd5b5061017361037a565b6040516101809190610887565b60405180910390f35b61019161039e565b60405161019e919061082b565b60405180910390f35b6101af6103a8565b005b3480156101bd57600080fd5b506101d860048036038101906101d391906108e0565b610471565b6040516101e692919061090d565b60405180910390f35b61020960048036038101906102049190610936565b610495565b604051610217929190610976565b60405180910390f35b60006001151582151503610255578383111561023f5760019050610286565b838310156102505760009050610286565b610285565b600015158215150361028457828411156102725760019050610286565b828410156102835760009050610286565b5b5b5b9392505050565b60008054906101000a900473ffffffffffffffffffffffffffffffffffffffff1673ffffffffffffffffffffffffffffffffffffffff163373ffffffffffffffffffffffffffffffffffffffff161461031b576040517f08c379a000000000000000000000000000000000000000000000000000000000815260040161031290610a22565b60405180910390fd5b3373ffffffffffffffffffffffffffffffffffffffff166108fc479081150290604051600060405180830381858888f19350505050158015610361573d6000803e3d6000fd5b50565b60015481565b6000600254905090565b60025481565b60008054906101000a900473ffffffffffffffffffffffffffffffffffffffff1681565b6000600154905090565b60008054906101000a900473ffffffffffffffffffffffffffffffffffffffff1673ffffffffffffffffffffffffffffffffffffffff163373ffffffffffffffffffffffffffffffffffffffff1614610436576040517f08c379a000000000000000000000000000000000000000000000000000000000815260040161042d90610a22565b60405180910390fd5b7f5c963fd7fde519af29d56159e6e3e18db4e5d3e4716c39c87958cf9e4862ed583334604051610467929190610a51565b60405180910390a1565b60036020528060005260406000206000915090508060000154908060010154905082565b60008060011515600060149054906101000a900460ff161515146104ee576040517f08c379a00000000000000000000000000000000000000000000000000000000081526004016104e590610ac6565b60405180910390fd5b343373ffffffffffffffffffffffffffffffffffffffff163111610547576040517f08c379a000000000000000000000000000000000000000000000000000000000815260040161053e90610b32565b60405180910390fd5b600061055161071e565b90506000610560828787610220565b90506000600360003373ffffffffffffffffffffffffffffffffffffffff1673ffffffffffffffffffffffffffffffffffffffff168152602001908152602001600020905060011515821515036106855760018160000160008282546105c69190610b81565b9250508190555060018060008282546105df9190610b81565b925050819055503373ffffffffffffffffffffffffffffffffffffffff166108fc60023461060d9190610bb5565b9081150290604051600060405180830381858888f19350505050158015610638573d6000803e3d6000fd5b507f05bb7924248cee9db500cb69e17c14e314413ba322759d375d60e1cbbff780903488858960405161066e9493929190610c43565b60405180910390a160018394509450505050610717565b60001515821515036107135760018160010160008282546106a69190610b81565b925050819055506001600260008282546106c09190610b81565b925050819055507f05bb7924248cee9db500cb69e17c14e314413ba322759d375d60e1cbbff78090348885896040516106fc9493929190610ce7565b60405180910390a160008394509450505050610717565b5050505b9250929050565b600080600590508091505090565b600080fd5b6000819050919050565b61074481610731565b811461074f57600080fd5b50565b6000813590506107618161073b565b92915050565b60008115159050919050565b61077c81610767565b811461078757600080fd5b50565b60008135905061079981610773565b92915050565b6000806000606084860312156107b8576107b761072c565b5b60006107c686828701610752565b93505060206107d786828701610752565b92505060406107e88682870161078a565b9150509250925092565b6107fb81610767565b82525050565b600060208201905061081660008301846107f2565b92915050565b61082581610731565b82525050565b6000602082019050610840600083018461081c565b92915050565b600073ffffffffffffffffffffffffffffffffffffffff82169050919050565b600061087182610846565b9050919050565b61088181610866565b82525050565b600060208201905061089c6000830184610878565b92915050565b60006108ad82610846565b9050919050565b6108bd816108a2565b81146108c857600080fd5b50565b6000813590506108da816108b4565b92915050565b6000602082840312156108f6576108f561072c565b5b6000610904848285016108cb565b91505092915050565b6000604082019050610922600083018561081c565b61092f602083018461081c565b9392505050565b6000806040838503121561094d5761094c61072c565b5b600061095b85828601610752565b925050602061096c8582860161078a565b9150509250929050565b600060408201905061098b60008301856107f2565b610998602083018461081c565b9392505050565b600082825260208201905092915050565b7f4f6e6c79206f776e65722063616e2063616c6c20746869732066756e6374696f60008201527f6e00000000000000000000000000000000000000000000000000000000000000602082015250565b6000610a0c60218361099f565b9150610a17826109b0565b604082019050919050565b60006020820190508181036000830152610a3b816109ff565b9050919050565b610a4b816108a2565b82525050565b6000604082019050610a666000830185610a42565b610a73602083018461081c565b9392505050565b7f5468652067616d65206973206e6f74206f6e6c696e6500000000000000000000600082015250565b6000610ab060168361099f565b9150610abb82610a7a565b602082019050919050565b60006020820190508181036000830152610adf81610aa3565b9050919050565b7f496e73756666696369656e742066756e64730000000000000000000000000000600082015250565b6000610b1c60128361099f565b9150610b2782610ae6565b602082019050919050565b60006020820190508181036000830152610b4b81610b0f565b9050919050565b7f4e487b7100000000000000000000000000000000000000000000000000000000600052601160045260246000fd5b6000610b8c82610731565b9150610b9783610731565b9250828201905080821115610baf57610bae610b52565b5b92915050565b6000610bc082610731565b9150610bcb83610731565b9250828202610bd981610731565b91508282048414831517610bf057610bef610b52565b5b5092915050565b7f776f6e0000000000000000000000000000000000000000000000000000000000600082015250565b6000610c2d60038361099f565b9150610c3882610bf7565b602082019050919050565b600060a082019050610c58600083018761081c565b610c65602083018661081c565b610c72604083018561081c565b610c7f60608301846107f2565b8181036080830152610c9081610c20565b905095945050505050565b7f6c6f737400000000000000000000000000000000000000000000000000000000600082015250565b6000610cd160048361099f565b9150610cdc82610c9b565b602082019050919050565b600060a082019050610cfc600083018761081c565b610d09602083018661081c565b610d16604083018561081c565b610d2360608301846107f2565b8181036080830152610d3481610cc4565b90509594505050505056fea26469706673582212203c351dd9631a51b2ba96fe94bde150a7fe21c8e879430bcad05bcd8509f171b164736f6c63430008120033",
  "linkReferences": {},
  "deployedLinkReferences": {}
}